S0130000696E74657272757063616F2E7372656365
S11300000C9434000C9459000C9446000C94460053
S11300100C9446000C9446000C9446000C94460044
S11300200C9446000C9446000C9446000C94460034
S11300300C9446000C9446000C9446000C94460024
S11300400C9446000C9446000C9446000C94460014
S11300500C9446000C9446000C9446000C94460004
S11300600C9446000C94460011241FBECFEFD8E038
S1130070DEBFCDBF21E0A0E0B1E001C01D92A230FF
S1130080B207E1F70E9448000C9499000C94000018
S11300908FE084B980EE8AB983E080936900789414
S11300A081E08DBB8BB180648BB98BB18F7D8BB9B3
S11300B0F9CF1F920F920FB60F9211242F938F93A3
S11300C09F938BB180628BB98BB18F7B8BB92FEFF0
S11300D080E792E0215080409040E1F700C00000AA
S11300E08091000190910101019690930101809308
S11300F000010A979CF010920101109200018BB14B
S113010080688BB92FEF87EA91E6215080409040B8
S1130110E1F700C000008BB18F778BB980910001AB
S113012085B99F918F912F910F900FBE0F901F90C3
S10901301895F894FFCFBE
S9030000FC
