S019000063616E63656C614175746F6D61746963612E737265633C
S11300000C9434000C94AE010C94FB010C9451003C
S11300100C9451000C9451000C9451000C94510018
S11300200C9451000C9451000C9451000C94510008
S11300300C9451000C9451000C9451000C945100F8
S11300400C9451000C9451000C9451000C945100E8
S11300500C9451000C9451000C9451000C945100D8
S11300600C9451000C94510011241FBECFEFD8E022
S1130070DEBFCDBF11E0A0E0B1E0EAE3FAE002C0E8
S113008005900D92A431B107D9F721E0A4E1B1E0C4
S113009001C01D92A731B207E1F70E944D010C94F3
S11300A01B050C940000982F907F9BB998B19F7DFD
S11300B098B998B1986098B9E9EFF0E03197F1F701
S11300C000C0000098B1977F98B9E9EFF0E031974C
S11300D0F1F700C00000F0E18F9FC00111248BB93B
S11300E088B1886088B989EF90E00197F1F700C082
S11300F0000088B1877F88B9E9EFF0E03197F1F724
S113010000C00000089580EF8AB987B1886387B979
S113011080E28BB988B1886088B989EF90E0019753
S1130120F1F700C0000088B1877F88B989EF90E0BB
S11301300197F1F700C0000088E20E94530089EFA4
S113014090E00197F1F700C000008FE00E94530097
S113015089EF90E00197F1F700C0000080E80E9469
S113016053000895982F907F9BB998B1906298B9E5
S113017098B1986098B9E3EFF1E03197F1F700C0D6
S1130180000098B1977F98B9E3EFF1E03197F1F768
S113019000C00000F0E18F9FC00111248BB988B129
S11301A0886088B983EF91E00197F1F700C00000FF
S11301B088B1877F88B9E3EFF1E03197F1F700C0A8
S11301C0000008950F931F93CF93DF938C01C0E039
S11301D0D0E003C00E94B2002196F801EC0FFD1F8D
S11301E080818111F7CFDF91CF911F910F910895F5
S11301F020E4829FC00111248068860F0E9453006E
S113020080E18A95F1F700C008950F931F93CF936F
S1130210DF93CDB7DEB764970FB6F894DEBF0FBE99
S1130220CDBF9F938F9380E091E09F938F938E0136
S11302300F5F1F4F1F930F930E941B02F801019041
S11302400020E9F73197CF01801B910B0F900F909D
S11302500F900F900F900F90843191057CF444E13E
S113026050E0481B590B60E270E001E010E00C0F15
S11302701D1F800F911F0E9414021D8ACE0101963A
S11302800E94E20064960FB6F894DEBF0FBECDBFA5
S1130290DF91CF911F910F910895F89484B18860F4
S11302A084B984B1806184B984B1806284B985B130
S11302B08F7E85B985B18F7D85B98FE08093690084
S11302C0789483E08DBBA1EBB0E08C91877F8C9315
S11302D0E0EBF0E08081836080838C9187608C9375
S11302E080818068808380818F7B808380E090E040
S11302F00E94CE0490E090931501809314010E9413
S1130300830060E080E00E94F80083E091E00E94B6
S1130310E20060E081E00E94F80080911401909175
S113032015010E94050187E18093B30080911601B5
S11303308823E1F31092160183B7817F8C6083BF19
S113034083B7816083BF2FEF81EE94E0215080401A
S11303509040E1F700C000008895E8CF1F920F920B
S11303600FB60F9211242F933F934F935F936F9384
S11303707F938F939F93AF93BF93EF93FF9380915A
S11303801601811127C081E08093160187E18093D3
S1130390B300809114019091150101969093150179
S11303A08093140160E080E00E94F80083E091E013
S11303B00E94E20060E081E00E94F8008091140154
S11303C0909115010E9405016091140180E090E074
S11303D00E94D604FF91EF91BF91AF919F918F91AD
S11303E07F916F915F914F913F912F910F900FBE2D
S11303F00F901F9018951F920F920FB60F92112411
S11304008F9380911601811109C081E080931601B8
S113041087E08093B30085B1806285B98F910F9096
S11304200FBE0F901F901895DC0101C06D934150D1
S11304305040E0F70895AEE0B0E0E1E2F2E00C9461
S1130440F2040D891E8986E08C831A8309838FEF59
S11304509FE79E838D83AE01475E5F4F6F89788DE2
S1130460CE0101960E943D02EF81F885E00FF11F55
S113047010822E96E4E00C940E05ABE0B0E0E3E4C9
S1130480F2E00C94E4046C017B018A01FC01178204
S11304901682838181FFCCC1CE0101963C01F60115
S11304A09381F70193FD859193FF81917F018823C7
S11304B009F4BAC1853239F493FD859193FF819192
S11304C07F01853229F4B60190E00E943404E7CF1D
S11304D0912C212C312CFFE1F315D8F08B3279F0DB
S11304E038F4803279F08332A1F4232D20611DC0C9
S11304F08D3261F0803369F4232D216016C0832D81
S11305008260382EE32DE4603E2E2AC0F32DF8607D
S11305101DC037FC2DC020ED280F2A3040F08E324C
S1130520B9F436FC81C1232D2064322E19C036FE65
S113053006C08AE0989E200D1124922E11C0EAE094
S11305402E9E200D1124222EF32DF0623F2E08C082
S11305508C3621F4832D8068382E02C0883641F40D
S1130560F70193FD859193FF81917F018111B3CFB1
S1130570982F9F7D9554933028F40C5F1F4F9FE371
S113058099830DC0833631F0833771F0833509F0D8
S113059059C021C0F801808189830E5F1F4F8824D0
S11305A08394912C530113C02801F2E04F0E511C87
S11305B0F801A080B18036FE03C0692D70E002C04E
S11305C06FEF7FEFC5010E9429044C018201F32DD6
S11305D0FF773F2E16C0280122E0420E511CF8017D
S11305E0A080B18036FE03C0692D70E002C06FEFB9
S11305F07FEFC5010E941E044C01F32DF0683F2ECD
S1130600820133FC1BC0822D90E088169906B0F459
S1130610B60180E290E00E9434042A94F4CFF501FC
S113062037FC859137FE81915F01B60190E00E940D
S1130630340421102A9421E0821A9108811491042F
S113064071F7E8C0843611F0893641F5F80137FEB8
S113065007C060817181828193810C5F1F4F08C044
S113066060817181072E000C880B990B0E5F1F4F60
S1130670F32DFF763F2E97FF09C0909580957095D6
S113068061957F4F8F4F9F4FF0683F2E2AE030E0F7
S1130690A3010E947004882E861845C0853731F462
S11306A0232D2F7EB22E2AE030E025C0932D997F92
S11306B0B92E8F36C1F018F4883579F0B5C080377B
S11306C019F0883721F0B0C0E92FE061BE2EB4FEE6
S11306D00DC0FB2DF460BF2E09C034FE0AC0292FC3
S11306E02660B22E06C028E030E005C020E130E0EC
S11306F002C020E132E0F801B7FE07C060817181D9
S1130700828193810C5F1F4F06C06081718180E0FC
S113071090E00E5F1F4FA3010E947004882E86187C
S1130720FB2DFF773F2E36FE0DC0232D2E7FA22EEC
S1130730891458F434FE0BC032FC09C0832D8E7E1C
S1130740A82E05C0B82CA32C03C0B82C01C0B92C0A
S1130750A4FE0FC0FE01E80DF11D8081803321F459
S11307609A2D997EA92E09C0A2FE06C0B394B39413
S113077004C08A2D867809F0B394A3FC11C0A0FEAE
S113078006C0B21488F4280C922C9B180EC0B21424
S113079060F4B60180E290E00E943404B394F7CF91
S11307A0B21418F42B1802C0982C212CA4FE10C0EB
S11307B0B60180E390E00E943404A2FE17C0A1FCBD
S11307C003C088E790E002C088E590E0B6010CC061
S11307D08A2D867859F0A1FE02C08BE201C080E226
S11307E0A7FC8DE2B60190E00E943404891438F429
S11307F0B60180E390E00E9434049A94F7CF8A947F
S1130800F301E80DF11D8081B60190E00E943404EB
S11308108110F5CF222009F442CEB60180E290E0A7
S11308200E9434042A94F6CFF6018681978102C08F
S11308308FEF9FEF2B96E2E10C940005FC010590ED
S1130840615070400110D8F7809590958E0F9F1FCE
S11308500895FC016150704001900110D8F7809513
S113086090958E0F9F1F08950F931F93CF93DF933F
S1130870FB01238121FD03C08FEF9FEF2CC022FFDA
S113088016C046815781248135814217530744F4A9
S1130890A081B1819D012F5F3F4F318320838C93D1
S11308A0268137812F5F3F4F3783268314C08B0106
S11308B0EC01FB010084F185E02D0995892BE1F61B
S11308C0D80116968D919C911797019617969C9333
S11308D08E931697CE01DF91CF911F910F910895BA
S11308E0FA01AA27283051F1203181F1E8946F935D
S11308F06E7F6E5F7F4F8F4F9F4FAF4FB1E03ED003
S1130900B4E03CD0670F781F891F9A1FA11D680FA0
S1130910791F8A1F911DA11D6A0F711D811D911DD3
S1130920A11D20D009F468943F912AE0269F112448
S11309303019305D3193DEF6CF010895462F4770AC
S1130940405D4193B3E00FD0C9F7F6CF462F4F7007
S1130950405D4A3318F0495D31FD4052419302D065
S1130960A9F7EACFB4E0A69597958795779567950B
S1130970BA95C9F700976105710508959B01AC010B
S11309800A2E06945795479537952795BA95C9F732
S1130990620F731F841F951FA01D0895F999FECF40
S11309A092BD81BDF89A992780B50895262FF999AB
S11309B0FECF1FBA92BD81BD20BD0FB6F894FA9A3E
S11309C0F99A0FBE019608952F923F924F925F922B
S11309D06F927F928F929F92AF92BF92CF92DF924B
S11309E0EF92FF920F931F93CF93DF93CDB7DEB7B0
S11309F0CA1BDB0B0FB6F894DEBF0FBECDBF099444
S1130A002A88398848885F846E847D848C849B849A
S1130A10AA84B984C884DF80EE80FD800C811B81A8
S1130A20AA81B981CE0FD11D0FB6F894DEBF0FBED7
S10D0A30CDBFED010895F894FFCF47
S1130A3A2564004573746163696F6E616D656E74D4
S1070A4A6F3A2000DB
S9030000FC
