S019000063726F6E6F6D6574726F446973706C61792E73726563ED
S11300000C9434000C9446000C9446000C94460066
S11300100C9446000C9446000C9446000C94460044
S11300200C9446000C9446000C9446000C94460034
S11300300C9446000C9446000C9446000C94460024
S11300400C9477000C9446000C9446000C944600E3
S11300500C9446000C9446000C9446000C94460004
S11300600C9446000C94460011241FBECFEFD8E038
S1130070DEBFCDBF21E0A0E0B1E001C01D92A830F9
S1130080B207E1F70E9448000C94EE000C940000C3
S1130090F89416BC84E085BD81E080936E0078946A
S11300A08FEF8AB98FE084B91BB815B8FFCFCF930F
S11300B0DF93EB0121E030E00FC0F901EE0FFF1FE9
S11300C0EC0FFD1F6AE070E00E94C60091838083FC
S11300D0862F972F2150310933237CF7E4E0F1E098
S11300E0828185B980818BB9DF91CF9108951F9268
S11300F00F920FB60F9211242F933F934F935F9358
S11301006F937F938F939F93AF93BF93EF93FF93DB
S113011080910201909103010196909303018093D1
S11301200201883F910509F5109203011092020122
S113013080910001909101018D3391054CF0109252
S113014001011092000115B8809100018BB904C01F
S113015064E071E00E9457008091000190910101D8
S113016001969093010180930001FF91EF91BF915B
S1130170AF919F918F917F916F915F914F913F913B
S11301802F910F900FBE0F901F90189597FB072E7D
S113019016F4009407D077FD09D00E94DA0007FC1A
S11301A005D03EF4909581959F4F08957095619583
S11301B07F4F0895AA1BBB1B51E107C0AA1FBB1F99
S11301C0A617B70710F0A61BB70B881F991F5A95DF
S11301D0A9F780959095BC01CD010895F894FFCFBF
S9030000FC
