S00D000074696D65722E73726563F6
S11300000C9434000C9446000C9446000C94460066
S11300100C9446000C9446000C9446000C94460044
S11300200C9446000C9446000C9446000C94460034
S11300300C9446000C9446000C9446000C94460024
S11300400C9457000C9446000C9446000C94460003
S11300500C9446000C9446000C9446000C94460004
S11300600C9446000C94460011241FBECFEFD8E038
S1130070DEBFCDBF21E0A0E0B1E001C01D92A230FF
S1130080B207E1F70E9448000C947B000C94000036
S1130090F8948AB181608AB98BB18E7F8BB916BC12
S11300A084E085BD81E080936E007894FFCF1F9239
S11300B00F920FB60F9211242F938F939F938091D9
S11300C00001909101010196909301018093000138
S11300D0883E914041F49BB181E089278BB910920D
S11300E00101109200019F918F912F910F900FBEEB
S10D00F00F901F901895F894FFCFAD
S9030000FC
