S0130000646973706C6179377365672E73726563A5
S11300000C9434000C943E000C943E000C943E007E
S11300100C943E000C943E000C943E000C943E0064
S11300200C943E000C943E000C943E000C943E0054
S11300300C943E000C943E000C943E000C943E0044
S11300400C943E000C943E000C943E000C943E0034
S11300500C943E000C943E000C943E000C943E0024
S11300600C943E000C943E0011241FBECFEFD8E048
S1130070DEBFCDBF0E9440000C946E000C940000C3
S11300808FE08AB984B91BB880E090E01C9B0AC059
S113009025B1277F25B925B1246025B901961C997E
S11300A0FECFF4CF25B12B7F25B925B1286025B922
S11300B08A3091058CF085B1826085B92FEF87EA8B
S11300C091E6215080409040E1F700C0000085B1E6
S11300D08D7F85B980E090E08BB9D8CFF894FFCFBD
S9030000FC
