:100000000C9434000C9446000C9446000C9446006A
:100010000C9446000C9446000C9446000C94460048
:100020000C9446000C945C000C9446000C94460022
:100030000C9446000C9446000C9446000C94460028
:100040000C9446000C9446000C9446000C94460018
:100050000C9446000C9446000C9446000C94460008
:100060000C9446000C94460011241FBECFEFD8E03C
:10007000DEBFCDBF21E0A0E0B1E001C01D92A43001
:10008000B207E1F70E9448000C94A7000C9400000E
:10009000F89480E68AB983EA84BD83E085BD109236
:1000A000B00084E08093B10081E08093700085E02F
:1000B0008093B2007894FFCF1F920F920FB60F92E9
:1000C00011248F939F9380910201909103010196D7
:1000D000909303018093020185E08093B2008091A8
:1000E000000190910101892BB9F480910201909156
:1000F00003010A9729F5109203011092020187B5B6
:100100008F5F87BD87B58F3FD9F481E090E09093F2
:1001100001018093000114C08091020190910301BC
:100120000A9771F4109203011092020187B5815071
:1001300087BD87B5811104C01092010110920001A2
:100140009F918F910F900FBE0F901F901895F8946C
:02015000FFCFDF
:00000001FF
