S010000070726F6A65746F312E73726563E0
S11300000C9434000C9458000C947B000C9446001F
S11300100C9446000C9446000C9446000C94460044
S11300200C9446000C9446000C9446000C94460034
S11300300C9446000C9446000C9446000C94460024
S11300400C9446000C9446000C9446000C94460014
S11300500C9446000C9446000C9446000C94460004
S11300600C9446000C94460011241FBECFEFD8E038
S1130070DEBFCDBF21E0A0E0B1E001C01D92A430FD
S1130080B207E1F70E9448000C94C1000C940000F0
S11300908FE084B993EF9AB980936900789483E0F0
S11300A08DBB8BB182608BB98BB180618BB9FFCF73
S11300B01F920F920FB60F9211248F939F938091EA
S11300C0020185B9809102019091030101969093F8
S11300D00301809302010A973CF08BB180688BB9CD
S11300E010920301109202019F918F910F900FBE05
S11300F00F901F9018951F920F920FB60F92112414
S11301002F933F938F939F938091000190910101CE
S1130110892BC9F48BB18F778BB98BB18F7E8BB957
S11301208BB18D7F8BB981E090E0209100013091FB
S11301300101232B11F080E090E090930101809362
S1130140000115B815C08BB180618BB98BB1826089
S11301508BB981E090E02091000130910101232BC3
S113016011F080E090E0909301018093000115B8B4
S11301709F918F913F912F910F900FBE0F901F90E1
S10901801895F894FFCF6E
S9030000FC
