:100000000C9434000C943E000C943E000C943E0082
:100010000C943E000C943E000C943E000C943E0068
:100020000C943E000C943E000C943E000C943E0058
:100030000C943E000C943E000C943E000C943E0048
:100040000C943E000C943E000C943E000C943E0038
:100050000C943E000C943E000C943E000C943E0028
:100060000C943E000C943E0011241FBECFEFD8E04C
:10007000DEBFCDBF0E9440000C9464000C940000D1
:100080008FE08AB91BB880E090E04F9B04C00196D6
:100090004F99FECF03C02BB12E7F2BB98130910534
:1000A00019F42BB121602BB98230910519F42BB1D1
:1000B00022602BB98330910541F78BB18E7F8BB9CC
:0C00C0008BB18D7F8BB9DFCFF894FFCFA0
:00000001FF
