:100000000C943B000C944D000C944D000C944D004E
:100010000C944D000C944D000C944D000C944D002C
:100020000C944D000C944D000C944D000C944D001C
:100030000C944D000C944D000C944D000C944D000C
:100040000C94C0000C944D000C944D000C944D0089
:100050000C944D000C946C000C944D000C944D00CD
:100060000C944D000C944D002043726F6E6F6D65C3
:1000700074726F3A200011241FBECFEFD8E0DEBFAC
:10008000CDBF21E0A0E0B1E001C01D92AF30B207CA
:10009000E1F70E944F000C94C0010C940000F8940A
:1000A00016BC84E085BD81E080936E00789487E67D
:1000B00090E00E94570182E480937C008FEE809351
:1000C0007A0010927B0017B88BEF88B9EEE7F0E06A
:1000D000808184608083FFCF1F920F920FB60F92B2
:1000E00011248F939F938091780090917900909341
:1000F0000A01809309019F918F910F900FBE0F907D
:100100001F901895EF92FF920F931F93CF93DF9359
:10011000EC017B018A0188E690E00E946B0162E0BD
:1001200071E0CE010E947B01C2E0D1E089810E9492
:10013000640188810E9464018AE30E946401BE0117
:10014000C7010E947B0189810E94640188810E940D
:1001500064018AE30E946401BE01C8010E947B0120
:1001600089810E94640188810E9464018AE00E9462
:100170006401DF91CF911F910F91FF90EF9008954F
:100180001F920F920FB60F9211242F933F934F930C
:100190005F936F937F938F939F93AF93BF93EF93EF
:1001A000FF9380910B0190910C01019690930C01AB
:1001B00080930B01883F9105E1F49BB181E0892791
:1001C0008BB910920C0110920B01409107015091D4
:1001D00008014F5F5F4F5093080140930701609102
:1001E0000D0170910E0180910001909101010E941A
:1001F00082008091070190910801CC97B1F4109290
:1002000008011092070160910D0170910E016F5F5E
:100210007F4F70930E0160930D0140E050E080919C
:100220000001909101010E94820080910D01909146
:100230000E01CC97A9F410920E0110920D0180913D
:1002400000019091010101969093010180930001BA
:10025000409107015091080160E070E00E94820027
:100260008091000190910101489781F41092010161
:1002700010920001409107015091080160910D0119
:1002800070910E0180E090E00E948200FF91EF915A
:10029000BF91AF919F918F917F916F915F914F919E
:1002A0003F912F910F900FBE0F901F901895909334
:1002B000C5008093C4001092C00088E18093C10003
:1002C00086E08093C20008959091C00095FFFCCF16
:1002D0008093C6000895CF93DF93EC0105C0FE0123
:1002E00084910E9464012196FE0184918111F7CFCF
:1002F000DF91CF910895AC01FB0180E006C0DF01E2
:10030000A80FB11D90E39C938F5F8530C0F39A01D5
:10031000ADECBCEC0E94B1019695879596958795BA
:10032000969587959C01220F331F880F991F880F80
:10033000991F880F991F820F931F9A01281B390B51
:10034000C901805D81939A010E94B101AC0156956B
:100350004795569547955695479541155105B9F6D8
:100360000895A29FB001B39FC001A39F700D811D8E
:100370001124911DB29F700D811D1124911D0895AE
:04038000F894FFCF1F
:00000001FF
