:100000000C943F000C9451000C9451000C9451003E
:100010000C9451000C9451000C9451000C9451001C
:100020000C9451000C9451000C9451000C9451000C
:100030000C9451000C9451000C9451000C945100FC
:100040000C9451000C9451000C9451000C945100EC
:100050000C9451000C948F000C9451000C9451009E
:100060000C9451000C945100204C656974757261B8
:1000700020616E616CF3676963613A2000001124AE
:100080001FBECFEFD8E0DEBFCDBF21E0A0E0B1E0E2
:1000900001C01D92A730B207E1F70E9453000C94F3
:1000A0000E010C940000789487E690E00E94A50071
:1000B00082E480937C008FEE80937A0010927B0024
:1000C00017B88BEF88B9EEE7F0E080818460808319
:1000D00088E690E00E94B90060E071E0809105013F
:1000E000909106010E94C900C0E0D1E08B810E947E
:1000F000B2008A810E94B20089810E94B200888188
:100100000E94B2008AE00E94B2002FEF83ED90E3DC
:10011000215080409040E1F700C00000D9CF1F92ED
:100120000F920FB60F9211248F939F9380917800B6
:100130009091790090930601809305019F918F9192
:100140000F900FBE0F901F9018959093C50080934D
:10015000C4001092C00088E18093C10086E08093C3
:10016000C20008959091C00095FFFCCF8093C60017
:100170000895CF93DF93EC0105C0FE0184910E94A6
:10018000B2002196FE0184918111F7CFDF91CF91CA
:100190000895AC01FB0180E006C0DF01A80FB11D8E
:1001A00090E39C938F5F8530C0F39A01ADECBCEC7B
:1001B0000E94FF00969587959695879596958795C9
:1001C0009C01220F331F880F991F880F991F880FDA
:1001D000991F820F931F9A01281B390BC901805D5B
:1001E00081939A010E94FF00AC0156954795569560
:1001F00047955695479541155105B9F60895A29F23
:10020000B001B39FC001A39F700D811D1124911DEA
:10021000B29F700D811D1124911D0895F894FFCF98
:00000001FF
