S01800004C44525F42555A5A45525F4C415345522E7372656313
S11300000C9434000C943E000C943E000C943E007E
S11300100C943E000C943E000C943E000C943E0064
S11300200C943E000C943E000C943E000C943E0054
S11300300C943E000C943E000C943E000C943E0044
S11300400C943E000C943E000C943E000C943E0034
S11300500C943E000C943E000C943E000C943E0024
S11300600C943E000C943E0011241FBECFEFD8E048
S1130070DEBFCDBF0E9440000C9459000C940000D8
S11300808FE78AB91BB84F9B0AC08BB18F7B8BB9A2
S11300908BB180628BB98BB180618BB9F4CF8BB19A
S11300A080648BB98BB18F7D8BB98BB18F7E8BB90B
S10900B0EACFF894FFCF33
S9030000FC
