:100000000C9434000C945B000C943E000C943E0065
:100010000C943E000C943E000C943E000C943E0068
:100020000C943E000C943E000C943E000C943E0058
:100030000C943E000C943E000C943E000C943E0048
:100040000C943E000C943E000C943E000C943E0038
:100050000C943E000C943E000C943E000C943E0028
:100060000C943E000C943E0011241FBECFEFD8E04C
:10007000DEBFCDBF0E9440000C9478000C940000BD
:1000800084B1806284B98AB180688AB985B18F7D74
:1000900085B9789483B7817F8C6083BF83B7816093
:1000A00083BF8DB381608DBBE9E6F0E08081836022
:1000B00080838895EFCF1F920F920FB60F92112475
:1000C0002F938F939F9395B180E2892785B92FEF66
:1000D00083ED90E3215080409040E1F700C00000A4
:1000E0009F918F912F910F900FBE0F901F90189599
:0400F000F894FFCFB2
:00000001FF
